:100000000C9434000C943E000C943E000C943E0082
:100010000C943E000C943E000C943E000C943E0068
:100020000C943E000C943E000C943E000C943E0058
:100030000C943E000C943E000C943E000C943E0048
:100040000C943E000C943E000C943E000C943E0038
:100050000C943E000C943E000C943E000C943E0028
:100060000C943E000C943E0011241FBECFEFD8E04C
:10007000DEBFCDBF0E945E000C9495000C94000082
:100080009FEF9AB9813029F45A9A5B985C985D9AEF
:100090000895823029F45A985B9A5C9A5D98089585
:1000A000811104C05A985B985C985D98089583EC20
:1000B00084BD85E085BD8FEF8AB908950E94570001
:1000C000D7EDC6EE80E00E944000D7BD2FEF83ED54
:1000D00090E3215080409040E1F700C0000081E0B3
:1000E0000E9440002FEF87EA91E621508040904027
:1000F000E1F700C0000080E00E944000C7BD2FEF84
:1001000083ED90E3215080409040E1F700C0000073
:1001100081E00E9440002FEF87EA91E62150804065
:0E0120009040E1F700C00000CDCFF894FFCF73
:00000001FF
